:100000000C945D000C9485000C9485000C94850084
:100010000C9485000C9485000C944F0D0C94850075
:100020000C9485000C9485000C9485000C9485003C
:100030000C9485000C9485000C9485000C9485002C
:100040000C942E030C9485000C9401030C94DB0299
:100050000C9485000C9485000C9485000C9485000C
:100060000C9485000C9485000000000024002700FB
:100070002A0000000000250028002B0004040404CE
:100080000404040402020202020203030303030342
:10009000010204081020408001020408102001021F
:1000A00004081020000000080002010000030407FB
:1000B0000000000000000000520D11241FBECFEF11
:1000C000D8E0DEBFCDBF11E0A0E0B1E0EEE0F0E2AD
:1000D00002C005900D92AA33B107D9F722E0AAE336
:1000E000B1E001C01D92A936B207E1F710E0CDE5FD
:1000F000D0E004C02197FE010E94BE0ECC35D1078E
:10010000C9F70E947F0D0C94FC0F0C940000E1EBEA
:10011000F0E02491EDE9F0E09491E9E8F0E0E49179
:10012000EE23D9F0222349F0243031F1B8F4223003
:1001300059F12330D9F0213019F1F0E0EE0FFF1F13
:10014000EE58FF4FA591B4912FB7F894EC9181111F
:1001500024C090959E239C932FBF08952730B9F01B
:10016000283059F72091B0002F7D14C020918000D5
:100170002F7720938000E1CF209180002F7DF9CF51
:1001800024B52F7724BDD9CF24B52F7DFBCF209167
:10019000B0002F772093B000D0CF9E2BDCCFCF9232
:1001A000DF92EF92FF920F931F93CF93DF937C0127
:1001B0006A0110E000E00C151D0581F0EB01D7018C
:1001C000ED91FC910190F081E02D6991C7010995B5
:1001D000892B21F00F5F1F4FBE01EDCFC801DF91CA
:1001E000CF911F910F91FF90EF90DF90CF900895E6
:1001F000FC01538D448D252F30E0842F90E0821B2D
:10020000930B541710F0CF96089501970895FC01B1
:10021000918D828D981761F0A28DAE0FBF2FB11D09
:100220005D968C91928D9F5F9F73928F90E0089561
:100230008FEF9FEF0895FC01918D828D981731F01B
:10024000828DE80FF11D858D90E008958FEF9FEF6F
:100250000895FC01818D228D90E0805C9F4F821B70
:1002600091098F739927089588EC91E00E942901E4
:100270009C0181E0232B09F480E00895FC01A48D0A
:10028000A80FB92FB11DA35ABF4F2C91848D90E0B8
:1002900001968F739927848FA689B7892C93A0899B
:1002A000B1898C91837080648C93938D848D981325
:1002B00006C00288F389E02D80818F7D80830895B8
:1002C000EF92FF920F931F93CF93DF93EC01F62EE3
:1002D00081E0888F9B8D8C8D98131AC0E889F989ED
:1002E000808185FF15C09FB7F894EE89FF896083F0
:1002F000E889F98980818370806480839FBF81E071
:1003000090E0DF91CF911F910F91FF90EF900895B2
:100310000B8D10E00F5F1F4F0F731127E02E8C8D98
:100320008E110CC00FB607FCFACFE889F9898081DD
:1003300085FFF5CFCE010E943E01F1CFEB8DEC0F92
:10034000FD2FF11DE35AFF4FF0829FB7F8940B8FFA
:10035000EA89FB8980818062D0CFCF93DF93EC0163
:10036000888D8823B9F0AA89BB89E889F9898C919D
:1003700085FD03C0808186FD0DC00FB607FCF7CF59
:100380008C9185FFF2CF808185FFEDCFCE010E9459
:100390003E01E9CFDF91CF9108950E943401811190
:1003A0000C940000089580E090E0892B11F00C94EB
:1003B000CD010895BC01009761F0FC01019000207F
:1003C000E9F73197AF01481B590B88EC91E00C9489
:1003D000CF0090E080E00895EDE9F0E02491E9E8B5
:1003E000F0E08491882399F090E0880F991FFC0138
:1003F000E859FF4FA591B491FC01EE58FF4F85914C
:1004000094918FB7F894EC91E22BEC938FBF81E03D
:100410000E9487008EE390E00E94830880E00E94A3
:1004200087008EE390E00E948308F1CF0F931F9323
:10043000E8ECF1E0A089B18982E08C93A485B585D0
:100440001C92A685B7858FEC8C93108EA489B589F4
:1004500086E08C93A289B3898C9180618C93A28968
:10046000B3898C9188608C93A289B3898C918068C0
:100470008C930288F389E02D80818F7D808310E04A
:1004800000E022E040E850E069E171E08CEE91E0AC
:100490000E94210C21E040E850E06FE171E086E528
:1004A00092E00E94210C1F910F910895CF93DF934A
:1004B000CDB7DEB7A5970FB6F894DEBF0FBECDBFA0
:1004C00080E4A82E9AE0492E512C612C712CA09228
:1004D0007C0080917A00806480937A0080917A0019
:1004E00086FDFCCF80917800909179006C01092EF7
:1004F000000CEE08FF0897FF3CC06DE288EC91E02D
:100500000E94600188279927DC018C199D09AE099A
:10051000BF098AA39BA3ACA3BDA319A28E010F5D43
:100520001F4F6AA17BA18CA19DA1A30192010E94F2
:100530009C0E8AA19BA1ACA1BDA12AA33BA34CA365
:100540005DA3605DF80162938F010A97A105B10573
:1005500040F7CF010E94DA0142E050E06AE271E028
:1005600088EC91E00E94CF0081E090E00E94830837
:10057000AECFBC2C0D2D1E2DDF2C19A2CE018196E5
:100580007C016B2D702F812F9D2DA30192010E9464
:100590009C0E8B2D902FA12FBD2DB22E032F142F2B
:1005A000D52E605DF70162937F010A97A105B10521
:1005B00040F7CF01CFCF1F920F920FB60F921124A9
:1005C0002F933F934F935F936F937F938F939F935B
:1005D000AF93BF93EF93FF9388EC91E00E943E01AD
:1005E000FF91EF91BF91AF919F918F917F916F910B
:1005F0005F914F913F912F910F900FBE0F901F90E1
:1006000018952F932FB72F938F939F93EF93FF936B
:10061000E091D801F091D9018081E091DE01F09163
:10062000DF0182FD19C090818091E1018F5F8F739E
:100630002091E201821741F0E091E101F0E0E853FE
:10064000FE4F958F8093E101FF91EF919F918F91E4
:100650002F912FBF2F9118958081F6CF1F921FB633
:100660001F9211242F933F938F939F93AF93BF9328
:1006700080916B0190916C01A0916D01B0916E0120
:1006800030916A0123E0230F2D3750F50196A11D0B
:10069000B11D20936A0180936B0190936C01A0932C
:1006A0006D01B0936E018091660190916701A091F8
:1006B0006801B09169010196A11DB11D8093660189
:1006C00090936701A0936801B0936901BF91AF91C6
:1006D0009F918F913F912F911F901FBE1F90189552
:1006E00026E8230F0296A11DB11DD3CFE091710121
:1006F000F09172018081811107C08FEF9FEF90937D
:100700005A01809359010895E0917101F0917201AD
:100710000580F681E02D80819181F1CFCF93DF9329
:10072000DC011596ED91FC910680F781E02DA489FE
:10073000B5898685978520893189EC013D832C8395
:10074000C089D1899B838A83CF010C9611962D9104
:100750003C9112972817390721F41296DC93CE9317
:100760001197158A148A2C9121502C9320915701AE
:10077000211155C0A285B385848195812681378159
:10078000EC013D832C83C681D7819B838A83CF0173
:10079000029611962D913C9112972817390721F452
:1007A0001296DC93CE9311972C9121502C93C689ED
:1007B0002091C4012C1710F4C093C40129E02C9F90
:1007C000E0011124C056DE4F0980DA81C02DD583A7
:1007D000C4834C815D8157834683AC81BD81139670
:1007E0009C938E9312979D838C83A689A29FD001A0
:1007F0001124A056BE4FB387A2878C918F5F8C9334
:10080000A0913A01B0913B01968956968C91891737
:1008100030F581E080935601DF91CF910895A0914A
:100820008601B0918701B787A68714962D913C91D8
:100830001597318B208B1496CD91DC9115979B8366
:100840008A8315969C938E93149785E891E0958BF7
:10085000848B809185018F5F80938501D1CF80E06B
:10086000DBCF0FB6F8940F9280915D0190915E01FD
:100870000F900FBE0895809157018F5F80935701AD
:100880000895FC010FB6F8940F92928D0F900FBE51
:1008900081E0911180E00895EF92FF920F931F93F2
:1008A000CF93DF93EC010FB6F8940F921E8D7C016D
:1008B00081E1E80EF11C01E01116D4F08FEF8E8F6C
:1008C0000F900FBE0FB6F8940F921D8D7E0188E039
:1008D000E80EF11C01E01116B4F08FEF8D8F0F9030
:1008E0000FBEDF91CF911F910F91FF90EF90089570
:1008F0008989882319F3C7010E948E03811100930F
:1009000056011150D9CF8885882339F3C7010E9439
:100910008E038111009356011150DDCFCF93DF93E9
:10092000FC01A085B1858281938124813581EC0110
:100930003D832C83C481D5819B838A8311968D91BD
:100940009C9112978E179F0721F41296DC93CE93F9
:100950001197118610868C9181508C938C91DF9128
:10096000CF910895CF93DF93DC01FB01208131818A
:100970002F3F3207C9F417966D917C911897EB01C0
:100980008A819B8193838283EC01FD83EC83758351
:100990006483EB01FB83EA83B187A0878C918F5F2F
:1009A0008C93DF91CF910895CD010396BC01EC01AA
:1009B0008A819B81EC014881598124173507B0F762
:1009C000DECFFC01CA0173836283F187E08746179B
:1009D000570790F0821B930B248535858217930768
:1009E000C8F4BF016E5F7F4F8091620190916301F7
:1009F0000E94B20480E008954217530718F462176A
:100A0000730740F4BF016E5F7F4F80916401909146
:100A10006501EECF81E00895EF92FF920F931F934F
:100A2000CF93DF93EC018B017A016C857D85600F9C
:100A3000711F9801A701CE010E94E104811107C036
:100A4000DF91CF911F910F91FF90EF9008958C85CA
:100A50009D85080F191FE889F989CE010995E5CF11
:100A6000EF92FF920F931F93CF93DF938C017B0143
:100A7000E0916401F09165010580F681E02DC68169
:100A8000D781CE0102960E948E042A8922FF0FC0D0
:100A9000A701B801CE010E940C05E889F989CE01B1
:100AA000DF91CF911F910F91FF90EF9009942E7FCE
:100AB0002A8BF3CFE0916401F0916501808181116F
:100AC0000DC08091620190916301909365018093C4
:100AD0006401F0936301E093620108950580F6815B
:100AE000E02D6FEF7FEF808191810E943005E2CF92
:100AF000EF92FF921F93CF93DF93EC01162FE090BC
:100B00005D01F0905E0180913A0190913B01029667
:100B10000E948E04CF3FDC07E9F51123D9F1E09163
:100B20007401F0917501A0913A01B0913B011596C5
:100B3000FC93EE931497A0913A01B0913B0184810C
:100B4000958117969C938E93169780913A01909178
:100B50003B01A481B581029613969C938E931297C4
:100B600080913A0190913B01029695838483E091B4
:100B70003A01F0913B0183E791E09387828780916E
:100B800073018F5F80937301DF91CF911F91FF906D
:100B9000EF900895CE0DDF1DE0913A01F0913B01F9
:100BA000D383C28360913A0170913B01CE15DF057A
:100BB00068F480916F01909170016E5F7F4FDF91BB
:100BC000CF911F91FF90EF900C94B204809171012E
:100BD000909172016E5F7F4F0E94B2048091590123
:100BE00090915A01C817D90778F6D0935A01C0934B
:100BF0005901CACFFC010396928381832FEF3FEF07
:100C00003483238396838583908787831082089516
:100C10000F920FB6F8940F921F9211242F923F92C9
:100C20004F925F926F927F928F929F92AF92BF92FC
:100C3000CF92DF92EF92FF920F931F932F933F93E8
:100C40004F935F936F937F938F939F93AF93BF93D4
:100C5000CF93DF93EF93FF93A0913A01B0913B01C3
:100C60000DB60D920EB60D9280915701882321F09A
:100C700081E0809356015DC010925601A0913A0127
:100C8000B0913B01E0913A01F0913B012D913C91F3
:100C90008789908D82179307A8F080913A019091EF
:100CA0003B0180913A0190913B01259A2D9A2FEFBB
:100CB00087EA91E6215080409040E1F700C00000B3
:100CC0001D9AF5CF8091C40129E001C08150482FC1
:100CD00050E0289FF0011124E056FE4F90819923A7
:100CE000A9F3A181B28112960D90BC91A02DB2837F
:100CF000A183829F900111242D553E4FA217B30767
:100D000029F412962D913C913283218399E0949F8E
:100D1000F001959FF00D1124E056FE4F0180F28105
:100D2000E02D2681378130933B0120933A01809357
:100D3000C401A0913A01B0913B01CD91CDBFDD91AD
:100D4000DEBFFF91EF91DF91CF91BF91AF919F9166
:100D50008F917F916F915F914F913F912F911F9153
:100D60000F91FF90EF90DF90CF90BF90AF909F904A
:100D70008F907F906F905F904F903F902F901F903B
:100D80000F900FBE0F9008958F929F92BF92CF92B7
:100D9000DF92EF92FF920F931F93CF93DF930FB6E3
:100DA000F8940F9280915701815080935701809160
:100DB0005701882379F080E00F900FBEDF91CF912B
:100DC0001F910F91FF90EF90DF90CF90BF909F9079
:100DD0008F9008958091C701882369F3F0E0E0E0E7
:100DE00039E041E07AC0E0918A01F0918B01068000
:100DF000F781E02DA489B5898685978560897189F9
:100E0000EC017D836C83C089D1899B838A83CF0168
:100E10000C9611966D917C9112976817790721F4C1
:100E20001296DC93CE931197158A148A8C91815077
:100E30008C93A285B3858481958166817781EC014D
:100E40007D836C83C681D7819B838A83CF01029681
:100E500011966D917C9112976817790721F412967B
:100E6000DC93CE9311972C9121502C93A68920913D
:100E7000C4012A1710F4A093C4013A9FD001112491
:100E8000A056BE4F11960D90BC91A02DB583A483A2
:100E900014966D917C911597778366831496CD9106
:100EA000DC9115979B838A8315969C938E93149758
:100EB0009689939FD0011124A056BE4FB387A28775
:100EC0008C918F5F8C93A0913A01B0913B01569623
:100ED0008C91981710F040935601809185018111F3
:100EE00082CFEF2B11F00E947603E0905401F09036
:100EF0005501E114F10409F456C089E0D82ECC2440
:100F0000C3940FEF1FEF809157018111EFC0C09183
:100F10005D01D0915E014E018FEF881A980A909280
:100F20005E0180925D0181149104B9F48091710198
:100F30009091720120916F01309170013093720194
:100F4000209371019093700180936F0180915F01F4
:100F50008F5F80935F010E94760380915901909189
:100F60005A01B12C8816990608F0B4C0E0913A01F4
:100F7000F0913B01E689DE9EF0011124E056FE4F20
:100F80008081823010F0BB24B39480915601B82A3E
:100F900009F0B6C0D1E0ED1AF10809F0B4CF109213
:100FA00055011092540180915601882309F403CF12
:100FB0000E94080681E000CFE0917101F09172017A
:100FC0000580F681E02D0680F781E02D82819381F6
:100FD0008816990628F490935A0180935901C6CF38
:100FE000C285D3858481958126813781DC01159660
:100FF0003C932E93149726813781D90113969C93A5
:101000008E931297CF01029649815A81481759074A
:1010100011F43A832983138612862881215028836C
:10102000A489B5891097F9F02685378540895189BB
:10103000E9015D834C8340895189EA013B832A831E
:1010400011966D917C9112979F01245F3F4F62171B
:10105000730721F412965C934E931197158A148AA4
:101060002C9121502C93A6892091C4012A1710F4A9
:10107000A093C401DA9ED0011124A056BE4F119650
:101080000D90BC91A02DB583A48314962D913C9115
:1010900015973783268314962D913C911597E90176
:1010A0009B838A8315969C938E93149796899D9D16
:1010B000D0011124A056BE4FB387A2878C918F5FB9
:1010C0008C93E0913A01F0913B018689981710F0DA
:1010D000BB24B394E0917101F09172018081811180
:1010E0006BCF10935A010093590140CF8091540166
:1010F00090915501019690935501809354014ACFE8
:10110000C092560147CFCF93DF93D82FC92F0E94AB
:101110003B0460E08D2F9C2F0E9478050E94C4063E
:10112000811102C00E940806DF91CF9108950F92AD
:101130000FB6F8940F921F9211242F923F924F9264
:101140005F926F927F928F929F92AF92BF92CF9257
:10115000DF92EF92FF920F931F932F933F934F9342
:101160005F936F937F938F939F93AF93BF93CF932F
:10117000DF93EF93FF93A0913A01B0913B010DB63D
:101180000D920EB60D9213BE809157018111F9C0D8
:1011900080915D0190915E01019690935E01809334
:1011A0005D01009781F520917101309172014091AC
:1011B0006F0150917001509372014093710130930F
:1011C000700120936F0120915F012F5F20935F01D9
:1011D000E0917101F09172012081211107C02FEF80
:1011E0003FEF30935A01209359010DC0E0917101F6
:1011F000F09172010580F681E02D208131813093DC
:101200005A01209359012091590130915A018217B6
:10121000930710F420E0A1C020E039E0D32EE09144
:101220007101F09172013081311107C08FEF9FEF92
:1012300090935A018093590190C0E0917101F0910F
:1012400072010580F681E02D0680F781E02D428154
:1012500053818417950728F450935A0140935901FC
:101260007CC0A285B3854481558166817781EA017E
:101270007D836C8366817781EB015B834A83AF0159
:101280004E5F5F4F11960D911C9112970417150731
:1012900021F412967C936E931197138612863C91DB
:1012A00031503C93A489B5891097F9F0668577850C
:1012B00000891189EB011D830C8300891189E801E4
:1012C0007B836A831196ED90FC901297BF01645F57
:1012D0007F4FE616F70621F412961C930E93119792
:1012E000158A148A3C9131503C93A6893091C401EF
:1012F0003A1710F4A093C401DA9ED0011124A0562D
:10130000BE4F11960D90BC91A02DB583A483149669
:101310006D917C9115977783668314966D917C917E
:101320001597EB015B834A8315965C934E93149754
:1013300046894D9DD0011124A056BE4FB387A28788
:101340003C913F5F3C93E0913A01F0913B0136893B
:10135000431708F464CF21E062CFE0913A01F091A5
:101360003B01E689D9E0ED9FF0011124E056FE4FE4
:101370008081823008F021E080915601282B59F4B9
:101380006FC0809154019091550101969093550141
:101390008093540165C080915701882321F081E03A
:1013A000809356015DC010925601A0913A01B09110
:1013B0003B01E0913A01F0913B012D913C918789ED
:1013C000908D82179307A8F080913A0190913B018C
:1013D00080913A0190913B01259A2D9A2FEF87EA4F
:1013E00091E6215080409040E1F700C000001D9A36
:1013F000F5CF8091C40129E001C08150482F50E011
:10140000289FF0011124E056FE4F90819923A9F303
:10141000A181B28112960D90BC91A02DB283A183BF
:10142000829F900111242D553E4FA217B30729F436
:1014300012962D913C913283218399E0949FF00183
:10144000959FF00D1124E056FE4F0180F281E02DB2
:101450002681378130933B0120933A018093C40168
:10146000A0913A01B0913B01CD91CDBFDD91DEBF9E
:10147000FF91EF91DF91CF91BF91AF919F918F91AC
:101480007F916F915F914F913F912F911F910F919C
:10149000FF90EF90DF90CF90BF90AF909F908F9094
:1014A0007F906F905F904F903F902F901F900F9084
:1014B0000FBE0F900895CF93DF93EC01892B49F075
:1014C0000E943B04CE010E945A0FDF91CF910C94F1
:1014D000C406DF91CF910895CF93DF9300D000D061
:1014E0000F92CDB7DEB7E0916401F09165011081F4
:1014F000D12CC12C112329F00580F681E02DC0806C
:10150000D1800E943B040E9431047C0180915B01E8
:1015100090915C01E816F90608F07CC00E945A051B
:10152000F0925C01E0925B010E94C40600916001B0
:10153000109161010FB6F8940F92D8015A96FC9061
:101540005A97FF2009F427C15C964C915C9744237D
:1015500001F150E016968D919C911797840F951F7D
:1015600017969C938E93169714962D913C911597F0
:101570008217930738F08D919C91119717969C9341
:101580008E931697F80166817781CE0101960E94AD
:10159000EC0FFA94D8015A96FC925A9718968C91AF
:1015A000882339F0C80108960E948E0381110E9499
:1015B00008060F900FBED980D7FCB8CF0C811D81D3
:1015C000D8011A968D919C91892B21F0C801029621
:1015D0000E948E040E9431047C0180915B019091F5
:1015E0005C01E816F90610F40E945A05F0925C01BD
:1015F000E0925B01EFEFED0DE93008F097CF0E2E92
:10160000000CFF0BE250F04FD80152968C9152978C
:101610000C94BE0EF0925C01E0925B01112351F03C
:10162000EC14FD0470F00E94C406B701C6010E94CC
:1016300030057CCFE0916201F0916301808161E02F
:10164000811160E000916001109161010FB6F89482
:101650000F92D8015D968C915D978F3F11F45D9646
:101660001C92F801868D8F3F09F4168E0F900FBEE5
:10167000D8015A968C915A9781113CC05296ED919F
:10168000FC91A0913A01B0913B011F96FC93EE931F
:101690001E97A0913A01B0913B01848195815196AA
:1016A0009C938E93509780913A0190913B01A48135
:1016B000B5810C9613969C938E93129780913A0164
:1016C00090913B010C9695838483E0913A01F091CF
:1016D0003B01C8014196958B848BF80181898F5F0E
:1016E000818BC6018E199F09662311F08FEF9FEF42
:1016F0000E947805C8010E944C040E94C406811112
:1017000015CF0E94080612CF8160F801828BCA8033
:10171000DB80648575856C0D7D1D9601A701C80170
:101720000E94E104882309F401CFD80152968C91DC
:10173000529782FF10C01C966D917C916C0D7D1D9F
:10174000A701C8010E940C05D8015096ED91FC91AB
:10175000C8010995EBCE8E7FF801828BF5CF8160B1
:1017600052968C9352976A817B811D967C936E93DF
:101770001C976E0D7F1D9701A701C8010E94E1040F
:10178000D5CE81FD04C0C8010E945B0ACFCE8E7FFA
:10179000F801828BCBCE0F900FBEA5CE00E010E0FB
:1017A0008091580181110CC08091A001823010F00D
:1017B0000E9408060115110599F30E94CD01F0CF92
:1017C0000FB6F8940F92E0918101F0918201C681E9
:1017D000D781CE0102960E948E048091C70181506C
:1017E0008093C701809158018150809358010F90D8
:1017F0000FBE8F89988D0E945B0ACE010E945B0A02
:10180000CFCFCF93DF93D82FC92F0E943B048D2FCA
:101810009C2F0E94C40EEC010E94C406209769F41C
:10182000259A2D9A2FEF80E792E02150804090403A
:10183000E1F700C000001D9AF5CFCE01DF91CF91F6
:1018400008957F928F929F92AF92BF92CF92DF9234
:10185000EF92FF920F931F93CF93DF93982EA92EB1
:10186000762E872E7A01B22E6801CA010E94010CE1
:101870008C01892B09F4F2C088E290E00E94010CEF
:10188000EC01892B09F4E7C0188F0F8BA70165EADB
:1018900070E0C8010E94F50F8F89988DA72DB82D93
:1018A000BE01675E7F4F9D01285F3F4F4D91FB0159
:1018B0004193BF01AD0141505109FA0140814423D8
:1018C00019F02A173B0791F7F1E0EF1AF108FC0134
:1018D000EE0DFF1D18A2BE8AB9A21AA21B861A8697
:1018E0001D8A1C8AD987C88784E090E08B199109EA
:1018F0009D878C87DB8BCA8B84E09E012D5D3F4FDB
:10190000D9011D928A95E9F71FA29082DF011197F4
:10191000AC9211971C92119780E88C9311971C92AE
:1019200057971C9211971C92B397F983E883C114BF
:10193000D10419F0F601D183C0830FB6F8940F9249
:101940008091C7018F5F8093C70180913A01909188
:101950003B01892B09F091C0D0933B01C0933A0120
:101960008091C701813081F580EA91E00E94FA05FB
:1019700089EA91E00E94FA0582EB91E00E94FA0563
:101980008BEB91E00E94FA0587E991E00E94FA054D
:101990008EE891E00E94FA0585E891E00E94FA0540
:1019A0008CE791E00E94FA0583E791E00E94FA0536
:1019B00087E991E090937201809371018EE891E044
:1019C0009093700180936F018091C5018F5F809328
:1019D000C501AE898091C4018A1710F4A093C40197
:1019E00029E02A9FD0011124A056BE4F11960D90D8
:1019F000BC91A02DBD83AC8314968D919C911597BD
:101A00009F838E831496ED91FC911597CE010296DB
:101A10009383828315969C938E931497EE89E29F0D
:101A2000F0011124E056FE4FFB87EA8780818F5F2B
:101A300080830F900FBE8091C601882351F0E09102
:101A40003A01F0913B0196898E89981710F40E9413
:101A5000080681E004C0C8010E945B0A8FEFDF9195
:101A6000CF911F910F91FF90EF90DF90CF90BF909B
:101A7000AF909F908F907F9008958091C6018111C3
:101A8000A3CFE0913A01F0913B0196898E898917A5
:101A900008F49ACFD0933B01C0933A0195CF0E94AE
:101AA00097081895E8ECF1E01382128288EE93E033
:101AB000A0E0B0E084839583A683B7838BE091E0B8
:101AC0009183808385EC90E09587848784EC90E017
:101AD0009787868780EC90E0918B808B81EC90E0FB
:101AE000938B828B82EC90E0958B848B86EC90E0DC
:101AF000978B868B118E128E138E148E0895789488
:101B000084B5826084BD84B5816084BD85B5826002
:101B100085BD85B5816085BD80916E0081608093B3
:101B20006E0010928100809181008260809381001C
:101B3000809181008160809381008091800081602C
:101B4000809380008091B10084608093B100809187
:101B5000B00081608093B00080917A0084608093AF
:101B60007A0080917A00826080937A0080917A0076
:101B7000816080937A0080917A00806880937A00F7
:101B80001092C10020910501309106018FEF98E07D
:101B9000821B930B90930201809301010E94160215
:101BA00002E511E020E040EC50E06DE271E08EECE7
:101BB0009BE00E94210C813009F0B3C00FB6F8946D
:101BC0000F928091600190916101892B09F04FC0C3
:101BD00087E491E00E94FA058EE391E00E94FA0505
:101BE00087E491E090936501809364018EE391E036
:101BF000909363018093620181E590E00E94010C63
:101C0000EC01009781F14F96998388838AE08B8F4E
:101C100085E08C8F0FB6F8940F92888199812B8D77
:101C20004C8DBC01249F600D711D11247D836C833C
:101C30001A8E9B838A832150330B429FB001439FAE
:101C4000700D1124860F971F9F838E838FEF8D8FCA
:101C50008E8FCE0108960E94FA05CE0141960E9411
:101C6000FA050F900FBED0936101C09360010F90F1
:101C70000FBE8091600190916101892B09F451C0E0
:101C800000E511E023E045E550E062E371E08CE619
:101C90009AE00E94210C813009F043C0F8942FEFA4
:101CA0003FEF30935A01209359018093C60110925F
:101CB0005E0110925D01A89588E190EC0FB6F89452
:101CC000A895809360000FBE90936000A0913A01A8
:101CD000B0913B01CD91CDBFDD91DEBFFF91EF9182
:101CE000DF91CF91BF91AF919F918F917F916F9134
:101CF0005F914F913F912F911F910F91FF90EF9026
:101D0000DF90CF90BF90AF909F908F907F906F901B
:101D10005F904F903F902F901F900F900FBE0F90AD
:101D20000895809100010E941602C0E0D0E0209743
:101D3000F1F30E94CD01FBCFA1E21A2EAA1BBB1B1F
:101D4000FD010DC0AA1FBB1FEE1FFF1FA217B30787
:101D5000E407F50720F0A21BB30BE40BF50B661F9D
:101D6000771F881F991F1A9469F760957095809561
:101D700090959B01AC01BD01CF010895EE0FFF1FAF
:101D80000590F491E02D09940F931F93CF93DF9367
:101D90009C01029710F422E030E0E0916702F0919C
:101DA000680290E080E0B0E0A0E0309791F4009706
:101DB00009F445C0821B930B84309105B8F58A81E4
:101DC0009B816115710569F1FB0193838283FE019B
:101DD00011C0408151810281138142175307F0F0F5
:101DE0004217530799F4109761F012960C931297CB
:101DF00013961C933296CF01DF91CF911F910F91D3
:101E000008950093670210936802F4CF009719F0C9
:101E10004817590718F4CA01BD01EF01DF01F801A5
:101E2000C4CF9093680280936702D1CFFE01E80F80
:101E3000F91F21933193029799838883DCCF809196
:101E4000650290916602892B41F480910301909183
:101E50000401909366028093650280910101909144
:101E60000201009741F48DB79EB740910501509152
:101E70000601841B950B409165025091660248173C
:101E8000590708F0B8CF841B950B8217930708F405
:101E9000B2CFB9016E5F7F4F8617970708F4ABCFBB
:101EA000640F751F7093660260936502FA012193B7
:101EB0003193A1CFCF93DF939C010097E9F0FC0110
:101EC000329713821282C0916702D0916802DE01BC
:101ED00090E080E02097A1F480819181280F391F44
:101EE00080916502909166028217930709F067C09E
:101EF000F0936602E0936502DF91CF910895DA01D5
:101F0000AE17BF0708F041C012964D915C91139730
:101F1000CD014115510599F7DC011396FC93EE9321
:101F200012974D915D91A40FB51FEA17FB0781F43D
:101F3000208131812E5F3F4F240F351FDC01119628
:101F40003C932E932281338113963C932E931297C8
:101F5000B0E0A0E08A819B810097B1F5FE018191FC
:101F60009191E80FF91F80916502909166028E179A
:101F70009F0711F6109759F51092680210926702A8
:101F8000D0936602C0936502B7CFB383A28340812A
:101F90005181240F351FA217B30771F44E5F5F4FB5
:101FA0002D913C911197420F531F518340831296FC
:101FB0002D913C9133832283009709F0ADCFF093AC
:101FC0006802E093670298CFDE01EC01C3CF13965D
:101FD0001C921E921297D4CFFB01DC0102C001902B
:101FE0000D9241505040D8F70895DC0101C06D9327
:101FF00041505040E0F70895F894FFCF840B840BD4
:0E200000C70BAF0BC10B840B840BC70BAF0BD0
:10200E0003000069022000000000006001CF00F80C
:10201E0000AD01290107011B01426C696E6B004185
:10202E006E616C6F6752656164000D0A0049444C25
:0A203E004500546D722053766300D4
:00000001FF
